{
    "contractName": "ETHLock",
    "abi": [
        {
            "inputs": [],
            "stateMutability": "nonpayable",
            "type": "constructor"
        },
        {
            "inputs": [],
            "name": "lockToken",
            "outputs": [
                {
                    "internalType": "bool",
                    "name": "",
                    "type": "bool"
                }
            ],
            "stateMutability": "view",
            "type": "function"
        },
        {
            "inputs": [],
            "name": "transferToken",
            "outputs": [
                {
                    "internalType": "bool",
                    "name": "",
                    "type": "bool"
                }
            ],
            "stateMutability": "view",
            "type": "function"
        }
    ],
    "bytecode": "6080604052348015600f57600080fd5b5060818061001e6000396000f3fe6080604052348015600f57600080fd5b506004361060325760003560e01c8063799a5359146037578063bca7a9e2146037575b600080fd5b604080516001815290519081900360200190f3fea2646970667358221220fa10dfe02048bcfb4d9e1e892981a223c0a6bc569c41dedeb35fc77562b333e464736f6c63430008030033",
    "sourcePath": "/home/zach/projects/web3/warp-contracts/contracts/wormhole-protocol/home_contracts/eth_lock/ETHLock.sol",
    "compiler": {
        "name": "solc",
        "version": "0.8.3+commit.8d00100c"
    },
    "functionHashes": {
        "lockToken()": "bca7a9e2",
        "transferToken()": "799a5359"
    },
    "gasEstimates": {
        "creation": {
            "codeDepositCost": "25800",
            "executionCost": "81",
            "totalCost": "25881"
        },
        "external": {
            "lockToken()": "171",
            "transferToken()": "149"
        }
    }
}