{
    "contractName": "Minter",
    "abi": [
        {
            "inputs": [],
            "stateMutability": "nonpayable",
            "type": "constructor"
        },
        {
            "inputs": [],
            "name": "mintToken",
            "outputs": [
                {
                    "internalType": "bool",
                    "name": "",
                    "type": "bool"
                }
            ],
            "stateMutability": "nonpayable",
            "type": "function"
        }
    ],
    "bytecode": "6080604052348015600f57600080fd5b50607780601d6000396000f3fe6080604052348015600f57600080fd5b506004361060285760003560e01c80632004ffd914602d575b600080fd5b604080516001815290519081900360200190f3fea26469706673582212203569744d5bea0cf7323f99b50c3cd9c5ca0ec4e8d9c5660c5b7a1df949697fcc64736f6c63430008030033",
    "sourcePath": "/home/zach/projects/web3/warp-contracts/contracts/wormhole-protocol/xdai_contracts/mint/Minter.sol",
    "compiler": {
        "name": "solc",
        "version": "0.8.3+commit.8d00100c"
    },
    "functionHashes": {
        "mintToken()": "2004ffd9"
    },
    "gasEstimates": {
        "creation": {
            "codeDepositCost": "23800",
            "executionCost": "75",
            "totalCost": "23875"
        },
        "external": {
            "mintToken()": "149"
        }
    }
}